{
  "_format": "hh-sol-artifact-1",
  "contractName": "MyEpicNFT",
  "sourceName": "contracts/MyEpicNFT.sol",
  "abi": [
    {
      "inputs": [],
      "stateMutability": "nonpayable",
      "type": "constructor"
    },
    {
      "anonymous": false,
      "inputs": [
        {
          "indexed": true,
          "internalType": "address",
          "name": "owner",
          "type": "address"
        },
        {
          "indexed": true,
          "internalType": "address",
          "name": "approved",
          "type": "address"
        },
        {
          "indexed": true,
          "internalType": "uint256",
          "name": "tokenId",
          "type": "uint256"
        }
      ],
      "name": "Approval",
      "type": "event"
    },
    {
      "anonymous": false,
      "inputs": [
        {
          "indexed": true,
          "internalType": "address",
          "name": "owner",
          "type": "address"
        },
        {
          "indexed": true,
          "internalType": "address",
          "name": "operator",
          "type": "address"
        },
        {
          "indexed": false,
          "internalType": "bool",
          "name": "approved",
          "type": "bool"
        }
      ],
      "name": "ApprovalForAll",
      "type": "event"
    },
    {
      "anonymous": false,
      "inputs": [
        {
          "indexed": false,
          "internalType": "address",
          "name": "sender",
          "type": "address"
        },
        {
          "indexed": false,
          "internalType": "uint256",
          "name": "tokenId",
          "type": "uint256"
        }
      ],
      "name": "NewEpicNFTMinted",
      "type": "event"
    },
    {
      "anonymous": false,
      "inputs": [
        {
          "indexed": true,
          "internalType": "address",
          "name": "from",
          "type": "address"
        },
        {
          "indexed": true,
          "internalType": "address",
          "name": "to",
          "type": "address"
        },
        {
          "indexed": true,
          "internalType": "uint256",
          "name": "tokenId",
          "type": "uint256"
        }
      ],
      "name": "Transfer",
      "type": "event"
    },
    {
      "inputs": [
        {
          "internalType": "address",
          "name": "to",
          "type": "address"
        },
        {
          "internalType": "uint256",
          "name": "tokenId",
          "type": "uint256"
        }
      ],
      "name": "approve",
      "outputs": [],
      "stateMutability": "nonpayable",
      "type": "function"
    },
    {
      "inputs": [
        {
          "internalType": "address",
          "name": "owner",
          "type": "address"
        }
      ],
      "name": "balanceOf",
      "outputs": [
        {
          "internalType": "uint256",
          "name": "",
          "type": "uint256"
        }
      ],
      "stateMutability": "view",
      "type": "function"
    },
    {
      "inputs": [
        {
          "internalType": "uint256",
          "name": "tokenId",
          "type": "uint256"
        }
      ],
      "name": "getApproved",
      "outputs": [
        {
          "internalType": "address",
          "name": "",
          "type": "address"
        }
      ],
      "stateMutability": "view",
      "type": "function"
    },
    {
      "inputs": [
        {
          "internalType": "address",
          "name": "owner",
          "type": "address"
        },
        {
          "internalType": "address",
          "name": "operator",
          "type": "address"
        }
      ],
      "name": "isApprovedForAll",
      "outputs": [
        {
          "internalType": "bool",
          "name": "",
          "type": "bool"
        }
      ],
      "stateMutability": "view",
      "type": "function"
    },
    {
      "inputs": [],
      "name": "makeAnEpicNFT",
      "outputs": [],
      "stateMutability": "nonpayable",
      "type": "function"
    },
    {
      "inputs": [],
      "name": "name",
      "outputs": [
        {
          "internalType": "string",
          "name": "",
          "type": "string"
        }
      ],
      "stateMutability": "view",
      "type": "function"
    },
    {
      "inputs": [
        {
          "internalType": "uint256",
          "name": "tokenId",
          "type": "uint256"
        }
      ],
      "name": "ownerOf",
      "outputs": [
        {
          "internalType": "address",
          "name": "",
          "type": "address"
        }
      ],
      "stateMutability": "view",
      "type": "function"
    },
    {
      "inputs": [
        {
          "internalType": "uint256",
          "name": "tokenId",
          "type": "uint256"
        }
      ],
      "name": "pickRandomColour",
      "outputs": [
        {
          "internalType": "string",
          "name": "",
          "type": "string"
        }
      ],
      "stateMutability": "view",
      "type": "function"
    },
    {
      "inputs": [
        {
          "internalType": "uint256",
          "name": "tokenId",
          "type": "uint256"
        }
      ],
      "name": "pickRandomFirstWord",
      "outputs": [
        {
          "internalType": "string",
          "name": "",
          "type": "string"
        }
      ],
      "stateMutability": "view",
      "type": "function"
    },
    {
      "inputs": [
        {
          "internalType": "uint256",
          "name": "tokenId",
          "type": "uint256"
        }
      ],
      "name": "pickRandomSecondWord",
      "outputs": [
        {
          "internalType": "string",
          "name": "",
          "type": "string"
        }
      ],
      "stateMutability": "view",
      "type": "function"
    },
    {
      "inputs": [
        {
          "internalType": "uint256",
          "name": "tokenId",
          "type": "uint256"
        }
      ],
      "name": "pickRandomThirdWord",
      "outputs": [
        {
          "internalType": "string",
          "name": "",
          "type": "string"
        }
      ],
      "stateMutability": "view",
      "type": "function"
    },
    {
      "inputs": [
        {
          "internalType": "address",
          "name": "from",
          "type": "address"
        },
        {
          "internalType": "address",
          "name": "to",
          "type": "address"
        },
        {
          "internalType": "uint256",
          "name": "tokenId",
          "type": "uint256"
        }
      ],
      "name": "safeTransferFrom",
      "outputs": [],
      "stateMutability": "nonpayable",
      "type": "function"
    },
    {
      "inputs": [
        {
          "internalType": "address",
          "name": "from",
          "type": "address"
        },
        {
          "internalType": "address",
          "name": "to",
          "type": "address"
        },
        {
          "internalType": "uint256",
          "name": "tokenId",
          "type": "uint256"
        },
        {
          "internalType": "bytes",
          "name": "data",
          "type": "bytes"
        }
      ],
      "name": "safeTransferFrom",
      "outputs": [],
      "stateMutability": "nonpayable",
      "type": "function"
    },
    {
      "inputs": [
        {
          "internalType": "address",
          "name": "operator",
          "type": "address"
        },
        {
          "internalType": "bool",
          "name": "approved",
          "type": "bool"
        }
      ],
      "name": "setApprovalForAll",
      "outputs": [],
      "stateMutability": "nonpayable",
      "type": "function"
    },
    {
      "inputs": [
        {
          "internalType": "bytes4",
          "name": "interfaceId",
          "type": "bytes4"
        }
      ],
      "name": "supportsInterface",
      "outputs": [
        {
          "internalType": "bool",
          "name": "",
          "type": "bool"
        }
      ],
      "stateMutability": "view",
      "type": "function"
    },
    {
      "inputs": [],
      "name": "symbol",
      "outputs": [
        {
          "internalType": "string",
          "name": "",
          "type": "string"
        }
      ],
      "stateMutability": "view",
      "type": "function"
    },
    {
      "inputs": [
        {
          "internalType": "uint256",
          "name": "tokenId",
          "type": "uint256"
        }
      ],
      "name": "tokenURI",
      "outputs": [
        {
          "internalType": "string",
          "name": "",
          "type": "string"
        }
      ],
      "stateMutability": "view",
      "type": "function"
    },
    {
      "inputs": [],
      "name": "totalNFTminted",
      "outputs": [
        {
          "internalType": "uint256",
          "name": "",
          "type": "uint256"
        }
      ],
      "stateMutability": "view",
      "type": "function"
    },
    {
      "inputs": [
        {
          "internalType": "address",
          "name": "from",
          "type": "address"
        },
        {
          "internalType": "address",
          "name": "to",
          "type": "address"
        },
        {
          "internalType": "uint256",
          "name": "tokenId",
          "type": "uint256"
        }
      ],
      "name": "transferFrom",
      "outputs": [],
      "stateMutability": "nonpayable",
      "type": "function"
    }
  ],
  "bytecode": "0x608060405260405180610160016040528061012f8152602001620050a661012f913960089081620000319190620011c4565b50604051806080016040528060568152602001620051d560569139600990816200005c9190620011c4565b50604051806101e001604052806040518060400160405280600581526020017f536576656e00000000000000000000000000000000000000000000000000000081525081526020016040518060400160405280600381526020017f54776f000000000000000000000000000000000000000000000000000000000081525081526020016040518060400160405280600581526020017f546872656500000000000000000000000000000000000000000000000000000081525081526020016040518060400160405280600481526020017f466f75720000000000000000000000000000000000000000000000000000000081525081526020016040518060400160405280600481526020017f466976650000000000000000000000000000000000000000000000000000000081525081526020016040518060400160405280600381526020017f536978000000000000000000000000000000000000000000000000000000000081525081526020016040518060400160405280600581526020017f456967687400000000000000000000000000000000000000000000000000000081525081526020016040518060400160405280600481526020017f4e696e650000000000000000000000000000000000000000000000000000000081525081526020016040518060400160405280600381526020017f54656e000000000000000000000000000000000000000000000000000000000081525081526020016040518060400160405280600681526020017f456c6576656e000000000000000000000000000000000000000000000000000081525081526020016040518060400160405280600681526020017f5477656c7665000000000000000000000000000000000000000000000000000081525081526020016040518060400160405280600881526020017f546869727465656e00000000000000000000000000000000000000000000000081525081526020016040518060400160405280600881526020017f466f75727465656e00000000000000000000000000000000000000000000000081525081526020016040518060400160405280600781526020017f4669667465656e0000000000000000000000000000000000000000000000000081525081526020016040518060400160405280600781526020017f5369787465656e00000000000000000000000000000000000000000000000000815250815250600a90600f620003ee92919062000d9d565b50604051806101e001604052806040518060400160405280600381526020017f526564000000000000000000000000000000000000000000000000000000000081525081526020016040518060400160405280600581526020017f477265656e00000000000000000000000000000000000000000000000000000081525081526020016040518060400160405280600681526020017f59656c6c6f77000000000000000000000000000000000000000000000000000081525081526020016040518060400160405280600481526020017f426c75650000000000000000000000000000000000000000000000000000000081525081526020016040518060400160405280600681526020017f4f72616e6765000000000000000000000000000000000000000000000000000081525081526020016040518060400160405280600581526020017f576869746500000000000000000000000000000000000000000000000000000081525081526020016040518060400160405280600581526020017f426c61636b00000000000000000000000000000000000000000000000000000081525081526020016040518060400160405280600681526020017f507572706c65000000000000000000000000000000000000000000000000000081525081526020016040518060400160405280600481526020017f50696e6b0000000000000000000000000000000000000000000000000000000081525081526020016040518060400160405280600481526020017f477265790000000000000000000000000000000000000000000000000000000081525081526020016040518060400160405280600581526020017f42726f776e00000000000000000000000000000000000000000000000000000081525081526020016040518060400160405280600681526020017f496e6469676f000000000000000000000000000000000000000000000000000081525081526020016040518060400160405280600681526020017f4d61726f6f6e000000000000000000000000000000000000000000000000000081525081526020016040518060400160405280600781526020017f4d6167656e74610000000000000000000000000000000000000000000000000081525081526020016040518060400160405280600681526020017f56696f6c65740000000000000000000000000000000000000000000000000000815250815250600b90600f6200078092919062000d9d565b506040518061018001604052806040518060400160405280600781526020017f50656e63696c730000000000000000000000000000000000000000000000000081525081526020016040518060400160405280600581526020017f42616c6c7300000000000000000000000000000000000000000000000000000081525081526020016040518060400160405280600581526020017f426f6f6b7300000000000000000000000000000000000000000000000000000081525081526020016040518060400160405280600781526020017f426f74746c65730000000000000000000000000000000000000000000000000081525081526020016040518060400160405280600681526020017f4379636c6573000000000000000000000000000000000000000000000000000081525081526020016040518060400160405280600581526020017f426f78657300000000000000000000000000000000000000000000000000000081525081526020016040518060400160405280600581526020017f536f636b7300000000000000000000000000000000000000000000000000000081525081526020016040518060400160405280600481526020017f426167730000000000000000000000000000000000000000000000000000000081525081526020016040518060400160405280600781526020017f466c6f776572730000000000000000000000000000000000000000000000000081525081526020016040518060400160405280600681526020017f467275697473000000000000000000000000000000000000000000000000000081525081526020016040518060400160405280600881526020017f56656869636c657300000000000000000000000000000000000000000000000081525081526020016040518060400160405280600781526020017f4472657373657300000000000000000000000000000000000000000000000000815250815250600c90600c62000a6192919062000dfd565b506040518060c001604052806040518060400160405280600381526020017f726564000000000000000000000000000000000000000000000000000000000081525081526020016040518060400160405280600781526020017f233038433241380000000000000000000000000000000000000000000000000081525081526020016040518060400160405280600581526020017f626c61636b00000000000000000000000000000000000000000000000000000081525081526020016040518060400160405280600681526020017f79656c6c6f77000000000000000000000000000000000000000000000000000081525081526020016040518060400160405280600481526020017f626c75650000000000000000000000000000000000000000000000000000000081525081526020016040518060400160405280600581526020017f677265656e000000000000000000000000000000000000000000000000000000815250815250600d90600662000bdf92919062000e5d565b5034801562000bed57600080fd5b506040518060400160405280600e81526020017f426c61636b5371756172654e46540000000000000000000000000000000000008152506040518060400160405280600b81526020017f424c41434b535155415245000000000000000000000000000000000000000000815250816000908162000c6b9190620011c4565b50806001908162000c7d9190620011c4565b50505062000ccb6040518060400160405280601e81526020017f54686973206973206d79204e465420636f6e74726163742e2057686f6121000081525062000cd160201b6200117e1760201c565b6200135e565b62000d718160405160240162000ce891906200133a565b6040516020818303038152906040527f41304fac000000000000000000000000000000000000000000000000000000007bffffffffffffffffffffffffffffffffffffffffffffffffffffffff19166020820180517bffffffffffffffffffffffffffffffffffffffffffffffffffffffff838183161783525050505062000d7460201b60201c565b50565b60008151905060006a636f6e736f6c652e6c6f679050602083016000808483855afa5050505050565b82805482825590600052602060002090810192821562000dea579160200282015b8281111562000de957825182908162000dd89190620011c4565b509160200191906001019062000dbe565b5b50905062000df9919062000ebd565b5090565b82805482825590600052602060002090810192821562000e4a579160200282015b8281111562000e4957825182908162000e389190620011c4565b509160200191906001019062000e1e565b5b50905062000e59919062000ebd565b5090565b82805482825590600052602060002090810192821562000eaa579160200282015b8281111562000ea957825182908162000e989190620011c4565b509160200191906001019062000e7e565b5b50905062000eb9919062000ebd565b5090565b5b8082111562000ee1576000818162000ed7919062000ee5565b5060010162000ebe565b5090565b50805462000ef39062000fb3565b6000825580601f1062000f07575062000f28565b601f01602090049060005260206000209081019062000f27919062000f2b565b5b50565b5b8082111562000f4657600081600090555060010162000f2c565b5090565b600081519050919050565b7f4e487b7100000000000000000000000000000000000000000000000000000000600052604160045260246000fd5b7f4e487b7100000000000000000000000000000000000000000000000000000000600052602260045260246000fd5b6000600282049050600182168062000fcc57607f821691505b60208210810362000fe25762000fe162000f84565b5b50919050565b60008190508160005260206000209050919050565b60006020601f8301049050919050565b600082821b905092915050565b6000600883026200104c7fffffffffffffffffffffffffffffffffffffffffffffffffffffffffffffffff826200100d565b6200105886836200100d565b95508019841693508086168417925050509392505050565b6000819050919050565b6000819050919050565b6000620010a56200109f620010998462001070565b6200107a565b62001070565b9050919050565b6000819050919050565b620010c18362001084565b620010d9620010d082620010ac565b8484546200101a565b825550505050565b600090565b620010f0620010e1565b620010fd818484620010b6565b505050565b5b81811015620011255762001119600082620010e6565b60018101905062001103565b5050565b601f82111562001174576200113e8162000fe8565b620011498462000ffd565b8101602085101562001159578190505b62001171620011688562000ffd565b83018262001102565b50505b505050565b600082821c905092915050565b6000620011996000198460080262001179565b1980831691505092915050565b6000620011b4838362001186565b9150826002028217905092915050565b620011cf8262000f4a565b67ffffffffffffffff811115620011eb57620011ea62000f55565b5b620011f7825462000fb3565b6200120482828562001129565b600060209050601f8311600181146200123c576000841562001227578287015190505b620012338582620011a6565b865550620012a3565b601f1984166200124c8662000fe8565b60005b8281101562001276578489015182556001820191506020850194506020810190506200124f565b8683101562001296578489015162001292601f89168262001186565b8355505b6001600288020188555050505b505050505050565b600082825260208201905092915050565b60005b83811015620012dc578082015181840152602081019050620012bf565b60008484015250505050565b6000601f19601f8301169050919050565b6000620013068262000f4a565b620013128185620012ab565b935062001324818560208601620012bc565b6200132f81620012e8565b840191505092915050565b60006020820190508181036000830152620013568184620012f9565b905092915050565b613d38806200136e6000396000f3fe608060405234801561001057600080fd5b50600436106101215760003560e01c80638ebb20d7116100ad578063c575757a11610071578063c575757a1461032c578063c87b56dd1461035c578063de9d132f1461038c578063e985e9c514610396578063eb9edb7d146103c657610121565b80638ebb20d71461028857806395d89b41146102a6578063a22cb465146102c4578063b187301f146102e0578063b88d4fde1461031057610121565b806323b872dd116100f457806323b872dd146101c05780632de38d68146101dc57806342842e0e1461020c5780636352211e1461022857806370a082311461025857610121565b806301ffc9a71461012657806306fdde0314610156578063081812fc14610174578063095ea7b3146101a4575b600080fd5b610140600480360381019061013b9190612561565b6103f6565b60405161014d91906125a9565b60405180910390f35b61015e6104d8565b60405161016b9190612654565b60405180910390f35b61018e600480360381019061018991906126ac565b61056a565b60405161019b919061271a565b60405180910390f35b6101be60048036038101906101b99190612761565b6105b0565b005b6101da60048036038101906101d591906127a1565b6106c7565b005b6101f660048036038101906101f191906126ac565b610727565b6040516102039190612654565b60405180910390f35b610226600480360381019061022191906127a1565b61081f565b005b610242600480360381019061023d91906126ac565b61083f565b60405161024f919061271a565b60405180910390f35b610272600480360381019061026d91906127f4565b6108c5565b60405161027f9190612830565b60405180910390f35b61029061097c565b60405161029d9190612830565b60405180910390f35b6102ae61098d565b6040516102bb9190612654565b60405180910390f35b6102de60048036038101906102d99190612877565b610a1f565b005b6102fa60048036038101906102f591906126ac565b610a35565b6040516103079190612654565b60405180910390f35b61032a600480360381019061032591906129ec565b610b2d565b005b610346600480360381019061034191906126ac565b610b8f565b6040516103539190612654565b60405180910390f35b610376600480360381019061037191906126ac565b610c87565b6040516103839190612654565b60405180910390f35b610394610d99565b005b6103b060048036038101906103ab9190612a6f565b610ff2565b6040516103bd91906125a9565b60405180910390f35b6103e060048036038101906103db91906126ac565b611086565b6040516103ed9190612654565b60405180910390f35b60007f80ac58cd000000000000000000000000000000000000000000000000000000007bffffffffffffffffffffffffffffffffffffffffffffffffffffffff1916827bffffffffffffffffffffffffffffffffffffffffffffffffffffffff191614806104c157507f5b5e139f000000000000000000000000000000000000000000000000000000007bffffffffffffffffffffffffffffffffffffffffffffffffffffffff1916827bffffffffffffffffffffffffffffffffffffffffffffffffffffffff1916145b806104d157506104d082611217565b5b9050919050565b6060600080546104e790612ade565b80601f016020809104026020016040519081016040528092919081815260200182805461051390612ade565b80156105605780601f1061053557610100808354040283529160200191610560565b820191906000526020600020905b81548152906001019060200180831161054357829003601f168201915b5050505050905090565b600061057582611281565b6004600083815260200190815260200160002060009054906101000a900473ffffffffffffffffffffffffffffffffffffffff169050919050565b60006105bb8261083f565b90508073ffffffffffffffffffffffffffffffffffffffff168373ffffffffffffffffffffffffffffffffffffffff160361062b576040517f08c379a000000000000000000000000000000000000000000000000000000000815260040161062290612b81565b60405180910390fd5b8073ffffffffffffffffffffffffffffffffffffffff1661064a6112cc565b73ffffffffffffffffffffffffffffffffffffffff1614806106795750610678816106736112cc565b610ff2565b5b6106b8576040517f08c379a00000000000000000000000000000000000000000000000000000000081526004016106af90612c13565b60405180910390fd5b6106c283836112d4565b505050565b6106d86106d26112cc565b8261138d565b610717576040517f08c379a000000000000000000000000000000000000000000000000000000000815260040161070e90612ca5565b60405180910390fd5b610722838383611422565b505050565b6060600061075b6107378461171b565b6040516020016107479190612d4d565b6040516020818303038152906040526117e9565b9050600a805490508161076e9190612d9e565b9050600a818154811061078457610783612dcf565b5b90600052602060002001805461079990612ade565b80601f01602080910402602001604051908101604052809291908181526020018280546107c590612ade565b80156108125780601f106107e757610100808354040283529160200191610812565b820191906000526020600020905b8154815290600101906020018083116107f557829003601f168201915b5050505050915050919050565b61083a83838360405180602001604052806000815250610b2d565b505050565b60008061084b8361181c565b9050600073ffffffffffffffffffffffffffffffffffffffff168173ffffffffffffffffffffffffffffffffffffffff16036108bc576040517f08c379a00000000000000000000000000000000000000000000000000000000081526004016108b390612e4a565b60405180910390fd5b80915050919050565b60008073ffffffffffffffffffffffffffffffffffffffff168273ffffffffffffffffffffffffffffffffffffffff1603610935576040517f08c379a000000000000000000000000000000000000000000000000000000000815260040161092c90612edc565b60405180910390fd5b600360008373ffffffffffffffffffffffffffffffffffffffff1673ffffffffffffffffffffffffffffffffffffffff168152602001908152602001600020549050919050565b60006109886007611859565b905090565b60606001805461099c90612ade565b80601f01602080910402602001604051908101604052809291908181526020018280546109c890612ade565b8015610a155780601f106109ea57610100808354040283529160200191610a15565b820191906000526020600020905b8154815290600101906020018083116109f857829003601f168201915b5050505050905090565b610a31610a2a6112cc565b8383611867565b5050565b60606000610a69610a458461171b565b604051602001610a559190612f48565b6040516020818303038152906040526117e9565b9050600b8054905081610a7c9190612d9e565b9050600b8181548110610a9257610a91612dcf565b5b906000526020600020018054610aa790612ade565b80601f0160208091040260200160405190810160405280929190818152602001828054610ad390612ade565b8015610b205780601f10610af557610100808354040283529160200191610b20565b820191906000526020600020905b815481529060010190602001808311610b0357829003601f168201915b5050505050915050919050565b610b3e610b386112cc565b8361138d565b610b7d576040517f08c379a0000000000000000000000000000000000000000000000000000000008152600401610b7490612ca5565b60405180910390fd5b610b89848484846119d3565b50505050565b60606000610bc3610b9f8461171b565b604051602001610baf9190612fb6565b6040516020818303038152906040526117e9565b9050600c8054905081610bd69190612d9e565b9050600c8181548110610bec57610beb612dcf565b5b906000526020600020018054610c0190612ade565b80601f0160208091040260200160405190810160405280929190818152602001828054610c2d90612ade565b8015610c7a5780601f10610c4f57610100808354040283529160200191610c7a565b820191906000526020600020905b815481529060010190602001808311610c5d57829003601f168201915b5050505050915050919050565b6060610c9282611281565b6000600660008481526020019081526020016000208054610cb290612ade565b80601f0160208091040260200160405190810160405280929190818152602001828054610cde90612ade565b8015610d2b5780601f10610d0057610100808354040283529160200191610d2b565b820191906000526020600020905b815481529060010190602001808311610d0e57829003601f168201915b505050505090506000610d3c611a2f565b90506000815103610d51578192505050610d94565b600082511115610d86578082604051602001610d6e929190612fd8565b60405160208183030381529060405292505050610d94565b610d8f84611a46565b925050505b919050565b6000610da56007611859565b9050610db081611aae565b600f811115610df4576040517f08c379a0000000000000000000000000000000000000000000000000000000008152600401610deb90613048565b60405180910390fd5b6000610dff82610727565b90506000610e0c83610a35565b90506000610e1984610b8f565b90506000838383604051602001610e3293929190613068565b60405160208183030381529060405290506000610e4e86611086565b90506000600882600985604051602001610e6b949392919061317d565b60405160208183030381529060405290506000610eb084610e8b84611b47565b604051602001610e9c92919061331c565b604051602081830303815290604052611b47565b9050600081604051602001610ec591906133ad565b6040516020818303038152906040529050610f146040518060400160405280601181526020017f0a2d2d2d2d2d2d2d2d2d2d2d2d2d2d2d2d00000000000000000000000000000081525061117e565b610f1d8161117e565b610f5b6040518060400160405280601281526020017f2d2d2d2d2d2d2d2d2d2d2d2d2d2d2d2d2d0a000000000000000000000000000081525061117e565b610f65338a611caa565b610f6f8982611cc8565b610f796007611d35565b610f9c604051806060016040528060258152602001613c9e602591398a33611d4b565b610fae610fa96007611859565b611aae565b7febb98688741ffa4c7589bf325de30cf7becb63de567842e1ccdb6cb949fdc82c338a604051610fdf9291906133cf565b60405180910390a1505050505050505050565b6000600560008473ffffffffffffffffffffffffffffffffffffffff1673ffffffffffffffffffffffffffffffffffffffff16815260200190815260200160002060008373ffffffffffffffffffffffffffffffffffffffff1673ffffffffffffffffffffffffffffffffffffffff16815260200190815260200160002060009054906101000a900460ff16905092915050565b606060006110ba6110968461171b565b6040516020016110a69190613444565b6040516020818303038152906040526117e9565b9050600d80549050816110cd9190612d9e565b9050600d81815481106110e3576110e2612dcf565b5b9060005260206000200180546110f890612ade565b80601f016020809104026020016040519081016040528092919081815260200182805461112490612ade565b80156111715780601f1061114657610100808354040283529160200191611171565b820191906000526020600020905b81548152906001019060200180831161115457829003601f168201915b5050505050915050919050565b611214816040516024016111929190612654565b6040516020818303038152906040527f41304fac000000000000000000000000000000000000000000000000000000007bffffffffffffffffffffffffffffffffffffffffffffffffffffffff19166020820180517bffffffffffffffffffffffffffffffffffffffffffffffffffffffff8381831617835250505050611dea565b50565b60007f01ffc9a7000000000000000000000000000000000000000000000000000000007bffffffffffffffffffffffffffffffffffffffffffffffffffffffff1916827bffffffffffffffffffffffffffffffffffffffffffffffffffffffff1916149050919050565b61128a81611e13565b6112c9576040517f08c379a00000000000000000000000000000000000000000000000000000000081526004016112c090612e4a565b60405180910390fd5b50565b600033905090565b816004600083815260200190815260200160002060006101000a81548173ffffffffffffffffffffffffffffffffffffffff021916908373ffffffffffffffffffffffffffffffffffffffff160217905550808273ffffffffffffffffffffffffffffffffffffffff166113478361083f565b73ffffffffffffffffffffffffffffffffffffffff167f8c5be1e5ebec7d5bd14f71427d1e84f3dd0314c0f7b2291e5b200ac8c7c3b92560405160405180910390a45050565b6000806113998361083f565b90508073ffffffffffffffffffffffffffffffffffffffff168473ffffffffffffffffffffffffffffffffffffffff1614806113db57506113da8185610ff2565b5b8061141957508373ffffffffffffffffffffffffffffffffffffffff166114018461056a565b73ffffffffffffffffffffffffffffffffffffffff16145b91505092915050565b8273ffffffffffffffffffffffffffffffffffffffff166114428261083f565b73ffffffffffffffffffffffffffffffffffffffff1614611498576040517f08c379a000000000000000000000000000000000000000000000000000000000815260040161148f906134d8565b60405180910390fd5b600073ffffffffffffffffffffffffffffffffffffffff168273ffffffffffffffffffffffffffffffffffffffff1603611507576040517f08c379a00000000000000000000000000000000000000000000000000000000081526004016114fe9061356a565b60405180910390fd5b6115148383836001611e54565b8273ffffffffffffffffffffffffffffffffffffffff166115348261083f565b73ffffffffffffffffffffffffffffffffffffffff161461158a576040517f08c379a0000000000000000000000000000000000000000000000000000000008152600401611581906134d8565b60405180910390fd5b6004600082815260200190815260200160002060006101000a81549073ffffffffffffffffffffffffffffffffffffffff02191690556001600360008573ffffffffffffffffffffffffffffffffffffffff1673ffffffffffffffffffffffffffffffffffffffff168152602001908152602001600020600082825403925050819055506001600360008473ffffffffffffffffffffffffffffffffffffffff1673ffffffffffffffffffffffffffffffffffffffff16815260200190815260200160002060008282540192505081905550816002600083815260200190815260200160002060006101000a81548173ffffffffffffffffffffffffffffffffffffffff021916908373ffffffffffffffffffffffffffffffffffffffff160217905550808273ffffffffffffffffffffffffffffffffffffffff168473ffffffffffffffffffffffffffffffffffffffff167fddf252ad1be2c89b69c2b068fc378daa952ba7f163c4a11628f55a4df523b3ef60405160405180910390a46117168383836001611f7a565b505050565b60606000600161172a84611f80565b01905060008167ffffffffffffffff811115611749576117486128c1565b5b6040519080825280601f01601f19166020018201604052801561177b5781602001600182028036833780820191505090505b509050600082602001820190505b6001156117de578080600190039150507f3031323334353637383961626364656600000000000000000000000000000000600a86061a8153600a85816117d2576117d1612d6f565b5b04945060008503611789575b819350505050919050565b6000816040516020016117fc919061358a565b6040516020818303038152906040528051906020012060001c9050919050565b60006002600083815260200190815260200160002060009054906101000a900473ffffffffffffffffffffffffffffffffffffffff169050919050565b600081600001549050919050565b8173ffffffffffffffffffffffffffffffffffffffff168373ffffffffffffffffffffffffffffffffffffffff16036118d5576040517f08c379a00000000000000000000000000000000000000000000000000000000081526004016118cc906135ed565b60405180910390fd5b80600560008573ffffffffffffffffffffffffffffffffffffffff1673ffffffffffffffffffffffffffffffffffffffff16815260200190815260200160002060008473ffffffffffffffffffffffffffffffffffffffff1673ffffffffffffffffffffffffffffffffffffffff16815260200190815260200160002060006101000a81548160ff0219169083151502179055508173ffffffffffffffffffffffffffffffffffffffff168373ffffffffffffffffffffffffffffffffffffffff167f17307eab39ab6107e8899845ad3d59bd9653f200f220920489ca2b5937696c31836040516119c691906125a9565b60405180910390a3505050565b6119de848484611422565b6119ea848484846120d3565b611a29576040517f08c379a0000000000000000000000000000000000000000000000000000000008152600401611a209061367f565b60405180910390fd5b50505050565b606060405180602001604052806000815250905090565b6060611a5182611281565b6000611a5b611a2f565b90506000815111611a7b5760405180602001604052806000815250611aa6565b80611a858461171b565b604051602001611a96929190612fd8565b6040516020818303038152906040525b915050919050565b611b4481604051602401611ac29190612830565b6040516020818303038152906040527ff82c50f1000000000000000000000000000000000000000000000000000000007bffffffffffffffffffffffffffffffffffffffffffffffffffffffff19166020820180517bffffffffffffffffffffffffffffffffffffffffffffffffffffffff8381831617835250505050611dea565b50565b60606000825103611b6957604051806020016040528060008152509050611ca5565b6000604051806060016040528060408152602001613cc36040913990506000600360028551611b9891906136ce565b611ba29190613702565b6004611bae9190613733565b67ffffffffffffffff811115611bc757611bc66128c1565b5b6040519080825280601f01601f191660200182016040528015611bf95781602001600182028036833780820191505090505b509050600182016020820185865187015b80821015611c65576003820191508151603f8160121c168501518453600184019350603f81600c1c168501518453600184019350603f8160061c168501518453600184019350603f8116850151845360018401935050611c0a565b5050600386510660018114611c815760028114611c9457611c9c565b603d6001830353603d6002830353611c9c565b603d60018303535b50505080925050505b919050565b611cc482826040518060200160405280600081525061225a565b5050565b611cd182611e13565b611d10576040517f08c379a0000000000000000000000000000000000000000000000000000000008152600401611d07906137e7565b60405180910390fd5b80600660008481526020019081526020016000209081611d30919061399e565b505050565b6001816000016000828254019250508190555050565b611de5838383604051602401611d6393929190613a70565b6040516020818303038152906040527f1c7ec448000000000000000000000000000000000000000000000000000000007bffffffffffffffffffffffffffffffffffffffffffffffffffffffff19166020820180517bffffffffffffffffffffffffffffffffffffffffffffffffffffffff8381831617835250505050611dea565b505050565b60008151905060006a636f6e736f6c652e6c6f679050602083016000808483855afa5050505050565b60008073ffffffffffffffffffffffffffffffffffffffff16611e358361181c565b73ffffffffffffffffffffffffffffffffffffffff1614159050919050565b6001811115611f7457600073ffffffffffffffffffffffffffffffffffffffff168473ffffffffffffffffffffffffffffffffffffffff1614611ee85780600360008673ffffffffffffffffffffffffffffffffffffffff1673ffffffffffffffffffffffffffffffffffffffff1681526020019081526020016000206000828254611ee09190613aae565b925050819055505b600073ffffffffffffffffffffffffffffffffffffffff168373ffffffffffffffffffffffffffffffffffffffff1614611f735780600360008573ffffffffffffffffffffffffffffffffffffffff1673ffffffffffffffffffffffffffffffffffffffff1681526020019081526020016000206000828254611f6b91906136ce565b925050819055505b5b50505050565b50505050565b600080600090507a184f03e93ff9f4daa797ed6e38ed64bf6a1f0100000000000000008310611fde577a184f03e93ff9f4daa797ed6e38ed64bf6a1f0100000000000000008381611fd457611fd3612d6f565b5b0492506040810190505b6d04ee2d6d415b85acef8100000000831061201b576d04ee2d6d415b85acef8100000000838161201157612010612d6f565b5b0492506020810190505b662386f26fc10000831061204a57662386f26fc1000083816120405761203f612d6f565b5b0492506010810190505b6305f5e1008310612073576305f5e100838161206957612068612d6f565b5b0492506008810190505b612710831061209857612710838161208e5761208d612d6f565b5b0492506004810190505b606483106120bb57606483816120b1576120b0612d6f565b5b0492506002810190505b600a83106120ca576001810190505b80915050919050565b60006120f48473ffffffffffffffffffffffffffffffffffffffff166122b5565b1561224d578373ffffffffffffffffffffffffffffffffffffffff1663150b7a0261211d6112cc565b8786866040518563ffffffff1660e01b815260040161213f9493929190613b37565b6020604051808303816000875af192505050801561217b57506040513d601f19601f820116820180604052508101906121789190613b98565b60015b6121fd573d80600081146121ab576040519150601f19603f3d011682016040523d82523d6000602084013e6121b0565b606091505b5060008151036121f5576040517f08c379a00000000000000000000000000000000000000000000000000000000081526004016121ec9061367f565b60405180910390fd5b805181602001fd5b63150b7a0260e01b7bffffffffffffffffffffffffffffffffffffffffffffffffffffffff1916817bffffffffffffffffffffffffffffffffffffffffffffffffffffffff191614915050612252565b600190505b949350505050565b61226483836122d8565b61227160008484846120d3565b6122b0576040517f08c379a00000000000000000000000000000000000000000000000000000000081526004016122a79061367f565b60405180910390fd5b505050565b6000808273ffffffffffffffffffffffffffffffffffffffff163b119050919050565b600073ffffffffffffffffffffffffffffffffffffffff168273ffffffffffffffffffffffffffffffffffffffff1603612347576040517f08c379a000000000000000000000000000000000000000000000000000000000815260040161233e90613c11565b60405180910390fd5b61235081611e13565b15612390576040517f08c379a000000000000000000000000000000000000000000000000000000000815260040161238790613c7d565b60405180910390fd5b61239e600083836001611e54565b6123a781611e13565b156123e7576040517f08c379a00000000000000000000000000000000000000000000000000000000081526004016123de90613c7d565b60405180910390fd5b6001600360008473ffffffffffffffffffffffffffffffffffffffff1673ffffffffffffffffffffffffffffffffffffffff16815260200190815260200160002060008282540192505081905550816002600083815260200190815260200160002060006101000a81548173ffffffffffffffffffffffffffffffffffffffff021916908373ffffffffffffffffffffffffffffffffffffffff160217905550808273ffffffffffffffffffffffffffffffffffffffff16600073ffffffffffffffffffffffffffffffffffffffff167fddf252ad1be2c89b69c2b068fc378daa952ba7f163c4a11628f55a4df523b3ef60405160405180910390a46124f1600083836001611f7a565b5050565b6000604051905090565b600080fd5b600080fd5b60007fffffffff0000000000000000000000000000000000000000000000000000000082169050919050565b61253e81612509565b811461254957600080fd5b50565b60008135905061255b81612535565b92915050565b600060208284031215612577576125766124ff565b5b60006125858482850161254c565b91505092915050565b60008115159050919050565b6125a38161258e565b82525050565b60006020820190506125be600083018461259a565b92915050565b600081519050919050565b600082825260208201905092915050565b60005b838110156125fe5780820151818401526020810190506125e3565b60008484015250505050565b6000601f19601f8301169050919050565b6000612626826125c4565b61263081856125cf565b93506126408185602086016125e0565b6126498161260a565b840191505092915050565b6000602082019050818103600083015261266e818461261b565b905092915050565b6000819050919050565b61268981612676565b811461269457600080fd5b50565b6000813590506126a681612680565b92915050565b6000602082840312156126c2576126c16124ff565b5b60006126d084828501612697565b91505092915050565b600073ffffffffffffffffffffffffffffffffffffffff82169050919050565b6000612704826126d9565b9050919050565b612714816126f9565b82525050565b600060208201905061272f600083018461270b565b92915050565b61273e816126f9565b811461274957600080fd5b50565b60008135905061275b81612735565b92915050565b60008060408385031215612778576127776124ff565b5b60006127868582860161274c565b925050602061279785828601612697565b9150509250929050565b6000806000606084860312156127ba576127b96124ff565b5b60006127c88682870161274c565b93505060206127d98682870161274c565b92505060406127ea86828701612697565b9150509250925092565b60006020828403121561280a576128096124ff565b5b60006128188482850161274c565b91505092915050565b61282a81612676565b82525050565b60006020820190506128456000830184612821565b92915050565b6128548161258e565b811461285f57600080fd5b50565b6000813590506128718161284b565b92915050565b6000806040838503121561288e5761288d6124ff565b5b600061289c8582860161274c565b92505060206128ad85828601612862565b9150509250929050565b600080fd5b600080fd5b7f4e487b7100000000000000000000000000000000000000000000000000000000600052604160045260246000fd5b6128f98261260a565b810181811067ffffffffffffffff82111715612918576129176128c1565b5b80604052505050565b600061292b6124f5565b905061293782826128f0565b919050565b600067ffffffffffffffff821115612957576129566128c1565b5b6129608261260a565b9050602081019050919050565b82818337600083830152505050565b600061298f61298a8461293c565b612921565b9050828152602081018484840111156129ab576129aa6128bc565b5b6129b684828561296d565b509392505050565b600082601f8301126129d3576129d26128b7565b5b81356129e384826020860161297c565b91505092915050565b60008060008060808587031215612a0657612a056124ff565b5b6000612a148782880161274c565b9450506020612a258782880161274c565b9350506040612a3687828801612697565b925050606085013567ffffffffffffffff811115612a5757612a56612504565b5b612a63878288016129be565b91505092959194509250565b60008060408385031215612a8657612a856124ff565b5b6000612a948582860161274c565b9250506020612aa58582860161274c565b9150509250929050565b7f4e487b7100000000000000000000000000000000000000000000000000000000600052602260045260246000fd5b60006002820490506001821680612af657607f821691505b602082108103612b0957612b08612aaf565b5b50919050565b7f4552433732313a20617070726f76616c20746f2063757272656e74206f776e6560008201527f7200000000000000000000000000000000000000000000000000000000000000602082015250565b6000612b6b6021836125cf565b9150612b7682612b0f565b604082019050919050565b60006020820190508181036000830152612b9a81612b5e565b9050919050565b7f4552433732313a20617070726f76652063616c6c6572206973206e6f7420746f60008201527f6b656e206f776e6572206f7220617070726f76656420666f7220616c6c000000602082015250565b6000612bfd603d836125cf565b9150612c0882612ba1565b604082019050919050565b60006020820190508181036000830152612c2c81612bf0565b9050919050565b7f4552433732313a2063616c6c6572206973206e6f7420746f6b656e206f776e6560008201527f72206f7220617070726f76656400000000000000000000000000000000000000602082015250565b6000612c8f602d836125cf565b9150612c9a82612c33565b604082019050919050565b60006020820190508181036000830152612cbe81612c82565b9050919050565b600081905092915050565b7f46495253545f574f524400000000000000000000000000000000000000000000600082015250565b6000612d06600a83612cc5565b9150612d1182612cd0565b600a82019050919050565b6000612d27826125c4565b612d318185612cc5565b9350612d418185602086016125e0565b80840191505092915050565b6000612d5882612cf9565b9150612d648284612d1c565b915081905092915050565b7f4e487b7100000000000000000000000000000000000000000000000000000000600052601260045260246000fd5b6000612da982612676565b9150612db483612676565b925082612dc457612dc3612d6f565b5b828206905092915050565b7f4e487b7100000000000000000000000000000000000000000000000000000000600052603260045260246000fd5b7f4552433732313a20696e76616c696420746f6b656e2049440000000000000000600082015250565b6000612e346018836125cf565b9150612e3f82612dfe565b602082019050919050565b60006020820190508181036000830152612e6381612e27565b9050919050565b7f4552433732313a2061646472657373207a65726f206973206e6f74206120766160008201527f6c6964206f776e65720000000000000000000000000000000000000000000000602082015250565b6000612ec66029836125cf565b9150612ed182612e6a565b604082019050919050565b60006020820190508181036000830152612ef581612eb9565b9050919050565b7f5345434f4e445f574f5244000000000000000000000000000000000000000000600082015250565b6000612f32600b83612cc5565b9150612f3d82612efc565b600b82019050919050565b6000612f5382612f25565b9150612f5f8284612d1c565b915081905092915050565b7f54484952445f574f524400000000000000000000000000000000000000000000600082015250565b6000612fa0600a83612cc5565b9150612fab82612f6a565b600a82019050919050565b6000612fc182612f93565b9150612fcd8284612d1c565b915081905092915050565b6000612fe48285612d1c565b9150612ff08284612d1c565b91508190509392505050565b7f6d696e74696e67206c696d697420657863656564656400000000000000000000600082015250565b60006130326016836125cf565b915061303d82612ffc565b602082019050919050565b6000602082019050818103600083015261306181613025565b9050919050565b60006130748286612d1c565b91506130808285612d1c565b915061308c8284612d1c565b9150819050949350505050565b60008190508160005260206000209050919050565b600081546130bb81612ade565b6130c58186612cc5565b945060018216600081146130e057600181146130f557613128565b60ff1983168652811515820286019350613128565b6130fe85613099565b60005b8381101561312057815481890152600182019150602081019050613101565b838801955050505b50505092915050565b7f3c2f746578743e3c2f7376673e00000000000000000000000000000000000000600082015250565b6000613167600d83612cc5565b915061317282613131565b600d82019050919050565b600061318982876130ae565b91506131958286612d1c565b91506131a182856130ae565b91506131ad8284612d1c565b91506131b88261315a565b915081905095945050505050565b7f7b226e616d65223a202200000000000000000000000000000000000000000000600082015250565b60006131fc600a83612cc5565b9150613207826131c6565b600a82019050919050565b7f222c20226465736372697074696f6e223a20224120686967686c79206163636c60008201527f61696d656420636f6c6c656374696f6e206f6620737175617265732e222c202260208201527f696d616765223a2022646174613a696d6167652f7376672b786d6c3b6261736560408201527f36342c0000000000000000000000000000000000000000000000000000000000606082015250565b60006132ba606383612cc5565b91506132c582613212565b606382019050919050565b7f227d000000000000000000000000000000000000000000000000000000000000600082015250565b6000613306600283612cc5565b9150613311826132d0565b600282019050919050565b6000613327826131ef565b91506133338285612d1c565b915061333e826132ad565b915061334a8284612d1c565b9150613355826132f9565b91508190509392505050565b7f646174613a6170706c69636174696f6e2f6a736f6e3b6261736536342c000000600082015250565b6000613397601d83612cc5565b91506133a282613361565b601d82019050919050565b60006133b88261338a565b91506133c48284612d1c565b915081905092915050565b60006040820190506133e4600083018561270b565b6133f16020830184612821565b9392505050565b7f434f4c4f52000000000000000000000000000000000000000000000000000000600082015250565b600061342e600583612cc5565b9150613439826133f8565b600582019050919050565b600061344f82613421565b915061345b8284612d1c565b915081905092915050565b7f4552433732313a207472616e736665722066726f6d20696e636f72726563742060008201527f6f776e6572000000000000000000000000000000000000000000000000000000602082015250565b60006134c26025836125cf565b91506134cd82613466565b604082019050919050565b600060208201905081810360008301526134f1816134b5565b9050919050565b7f4552433732313a207472616e7366657220746f20746865207a65726f2061646460008201527f7265737300000000000000000000000000000000000000000000000000000000602082015250565b60006135546024836125cf565b915061355f826134f8565b604082019050919050565b6000602082019050818103600083015261358381613547565b9050919050565b60006135968284612d1c565b915081905092915050565b7f4552433732313a20617070726f766520746f2063616c6c657200000000000000600082015250565b60006135d76019836125cf565b91506135e2826135a1565b602082019050919050565b60006020820190508181036000830152613606816135ca565b9050919050565b7f4552433732313a207472616e7366657220746f206e6f6e20455243373231526560008201527f63656976657220696d706c656d656e7465720000000000000000000000000000602082015250565b60006136696032836125cf565b91506136748261360d565b604082019050919050565b600060208201905081810360008301526136988161365c565b9050919050565b7f4e487b7100000000000000000000000000000000000000000000000000000000600052601160045260246000fd5b60006136d982612676565b91506136e483612676565b92508282019050808211156136fc576136fb61369f565b5b92915050565b600061370d82612676565b915061371883612676565b92508261372857613727612d6f565b5b828204905092915050565b600061373e82612676565b915061374983612676565b925082820261375781612676565b9150828204841483151761376e5761376d61369f565b5b5092915050565b7f45524337323155524953746f726167653a2055524920736574206f66206e6f6e60008201527f6578697374656e7420746f6b656e000000000000000000000000000000000000602082015250565b60006137d1602e836125cf565b91506137dc82613775565b604082019050919050565b60006020820190508181036000830152613800816137c4565b9050919050565b60006020601f8301049050919050565b600082821b905092915050565b6000600883026138547fffffffffffffffffffffffffffffffffffffffffffffffffffffffffffffffff82613817565b61385e8683613817565b95508019841693508086168417925050509392505050565b6000819050919050565b600061389b61389661389184612676565b613876565b612676565b9050919050565b6000819050919050565b6138b583613880565b6138c96138c1826138a2565b848454613824565b825550505050565b600090565b6138de6138d1565b6138e98184846138ac565b505050565b5b8181101561390d576139026000826138d6565b6001810190506138ef565b5050565b601f8211156139525761392381613099565b61392c84613807565b8101602085101561393b578190505b61394f61394785613807565b8301826138ee565b50505b505050565b600082821c905092915050565b600061397560001984600802613957565b1980831691505092915050565b600061398e8383613964565b9150826002028217905092915050565b6139a7826125c4565b67ffffffffffffffff8111156139c0576139bf6128c1565b5b6139ca8254612ade565b6139d5828285613911565b600060209050601f831160018114613a0857600084156139f6578287015190505b613a008582613982565b865550613a68565b601f198416613a1686613099565b60005b82811015613a3e57848901518255600182019150602085019450602081019050613a19565b86831015613a5b5784890151613a57601f891682613964565b8355505b6001600288020188555050505b505050505050565b60006060820190508181036000830152613a8a818661261b565b9050613a996020830185612821565b613aa6604083018461270b565b949350505050565b6000613ab982612676565b9150613ac483612676565b9250828203905081811115613adc57613adb61369f565b5b92915050565b600081519050919050565b600082825260208201905092915050565b6000613b0982613ae2565b613b138185613aed565b9350613b238185602086016125e0565b613b2c8161260a565b840191505092915050565b6000608082019050613b4c600083018761270b565b613b59602083018661270b565b613b666040830185612821565b8181036060830152613b788184613afe565b905095945050505050565b600081519050613b9281612535565b92915050565b600060208284031215613bae57613bad6124ff565b5b6000613bbc84828501613b83565b91505092915050565b7f4552433732313a206d696e7420746f20746865207a65726f2061646472657373600082015250565b6000613bfb6020836125cf565b9150613c0682613bc5565b602082019050919050565b60006020820190508181036000830152613c2a81613bee565b9050919050565b7f4552433732313a20746f6b656e20616c7265616479206d696e74656400000000600082015250565b6000613c67601c836125cf565b9150613c7282613c31565b602082019050919050565b60006020820190508181036000830152613c9681613c5a565b905091905056fe416e204e465420772f20494420257320686173206265656e206d696e74656420746f2025734142434445464748494a4b4c4d4e4f505152535455565758595a6162636465666768696a6b6c6d6e6f707172737475767778797a303132333435363738392b2fa264697066735822122098ba37188414cbb153dce9700563612b701008a79c9275d76d4d6870c954e61f64736f6c634300081100333c73766720786d6c6e733d27687474703a2f2f7777772e77332e6f72672f323030302f73766727207072657365727665417370656374526174696f3d27784d696e594d696e206d656574272076696577426f783d273020302033353020333530273e3c7374796c653e2e62617365207b2066696c6c3a2077686974653b20666f6e742d66616d696c793a2073657269663b20666f6e742d73697a653a20323470783b207d3c2f7374796c653e3c726563742077696474683d273130302527206865696768743d2731303025272066696c6c3d27626c61636b27202f3e3c7465787420783d273530252720793d273530252720636c6173733d27626173652720646f6d696e616e742d626173656c696e653d276d6964646c652720746578742d616e63686f723d276d6964646c65273e272f3e3c7465787420783d273530252720793d273530252720636c6173733d27626173652720646f6d696e616e742d626173656c696e653d276d6964646c652720746578742d616e63686f723d276d6964646c65273e",
  "linkReferences": {},
  "deployedLinkReferences": {}
}