{
  "_format": "hh-sol-artifact-1",
  "contractName": "MyEpicNFT",
  "sourceName": "contracts/MyEpicNFT.sol",
  "abi": [
    {
      "inputs": [],
      "stateMutability": "nonpayable",
      "type": "constructor"
    },
    {
      "anonymous": false,
      "inputs": [
        {
          "indexed": true,
          "internalType": "address",
          "name": "owner",
          "type": "address"
        },
        {
          "indexed": true,
          "internalType": "address",
          "name": "approved",
          "type": "address"
        },
        {
          "indexed": true,
          "internalType": "uint256",
          "name": "tokenId",
          "type": "uint256"
        }
      ],
      "name": "Approval",
      "type": "event"
    },
    {
      "anonymous": false,
      "inputs": [
        {
          "indexed": true,
          "internalType": "address",
          "name": "owner",
          "type": "address"
        },
        {
          "indexed": true,
          "internalType": "address",
          "name": "operator",
          "type": "address"
        },
        {
          "indexed": false,
          "internalType": "bool",
          "name": "approved",
          "type": "bool"
        }
      ],
      "name": "ApprovalForAll",
      "type": "event"
    },
    {
      "anonymous": false,
      "inputs": [
        {
          "indexed": false,
          "internalType": "address",
          "name": "sender",
          "type": "address"
        },
        {
          "indexed": false,
          "internalType": "uint256",
          "name": "tokenId",
          "type": "uint256"
        }
      ],
      "name": "NewEpicNFTMinted",
      "type": "event"
    },
    {
      "anonymous": false,
      "inputs": [
        {
          "indexed": true,
          "internalType": "address",
          "name": "from",
          "type": "address"
        },
        {
          "indexed": true,
          "internalType": "address",
          "name": "to",
          "type": "address"
        },
        {
          "indexed": true,
          "internalType": "uint256",
          "name": "tokenId",
          "type": "uint256"
        }
      ],
      "name": "Transfer",
      "type": "event"
    },
    {
      "inputs": [
        {
          "internalType": "address",
          "name": "to",
          "type": "address"
        },
        {
          "internalType": "uint256",
          "name": "tokenId",
          "type": "uint256"
        }
      ],
      "name": "approve",
      "outputs": [],
      "stateMutability": "nonpayable",
      "type": "function"
    },
    {
      "inputs": [
        {
          "internalType": "address",
          "name": "owner",
          "type": "address"
        }
      ],
      "name": "balanceOf",
      "outputs": [
        {
          "internalType": "uint256",
          "name": "",
          "type": "uint256"
        }
      ],
      "stateMutability": "view",
      "type": "function"
    },
    {
      "inputs": [
        {
          "internalType": "uint256",
          "name": "tokenId",
          "type": "uint256"
        }
      ],
      "name": "getApproved",
      "outputs": [
        {
          "internalType": "address",
          "name": "",
          "type": "address"
        }
      ],
      "stateMutability": "view",
      "type": "function"
    },
    {
      "inputs": [
        {
          "internalType": "address",
          "name": "owner",
          "type": "address"
        },
        {
          "internalType": "address",
          "name": "operator",
          "type": "address"
        }
      ],
      "name": "isApprovedForAll",
      "outputs": [
        {
          "internalType": "bool",
          "name": "",
          "type": "bool"
        }
      ],
      "stateMutability": "view",
      "type": "function"
    },
    {
      "inputs": [
        {
          "internalType": "string",
          "name": "IPFSHash",
          "type": "string"
        }
      ],
      "name": "makeAnEpicNFT",
      "outputs": [],
      "stateMutability": "nonpayable",
      "type": "function"
    },
    {
      "inputs": [],
      "name": "name",
      "outputs": [
        {
          "internalType": "string",
          "name": "",
          "type": "string"
        }
      ],
      "stateMutability": "view",
      "type": "function"
    },
    {
      "inputs": [
        {
          "internalType": "uint256",
          "name": "tokenId",
          "type": "uint256"
        }
      ],
      "name": "ownerOf",
      "outputs": [
        {
          "internalType": "address",
          "name": "",
          "type": "address"
        }
      ],
      "stateMutability": "view",
      "type": "function"
    },
    {
      "inputs": [
        {
          "internalType": "address",
          "name": "from",
          "type": "address"
        },
        {
          "internalType": "address",
          "name": "to",
          "type": "address"
        },
        {
          "internalType": "uint256",
          "name": "tokenId",
          "type": "uint256"
        }
      ],
      "name": "safeTransferFrom",
      "outputs": [],
      "stateMutability": "nonpayable",
      "type": "function"
    },
    {
      "inputs": [
        {
          "internalType": "address",
          "name": "from",
          "type": "address"
        },
        {
          "internalType": "address",
          "name": "to",
          "type": "address"
        },
        {
          "internalType": "uint256",
          "name": "tokenId",
          "type": "uint256"
        },
        {
          "internalType": "bytes",
          "name": "data",
          "type": "bytes"
        }
      ],
      "name": "safeTransferFrom",
      "outputs": [],
      "stateMutability": "nonpayable",
      "type": "function"
    },
    {
      "inputs": [
        {
          "internalType": "address",
          "name": "operator",
          "type": "address"
        },
        {
          "internalType": "bool",
          "name": "approved",
          "type": "bool"
        }
      ],
      "name": "setApprovalForAll",
      "outputs": [],
      "stateMutability": "nonpayable",
      "type": "function"
    },
    {
      "inputs": [
        {
          "internalType": "bytes4",
          "name": "interfaceId",
          "type": "bytes4"
        }
      ],
      "name": "supportsInterface",
      "outputs": [
        {
          "internalType": "bool",
          "name": "",
          "type": "bool"
        }
      ],
      "stateMutability": "view",
      "type": "function"
    },
    {
      "inputs": [],
      "name": "symbol",
      "outputs": [
        {
          "internalType": "string",
          "name": "",
          "type": "string"
        }
      ],
      "stateMutability": "view",
      "type": "function"
    },
    {
      "inputs": [
        {
          "internalType": "uint256",
          "name": "tokenId",
          "type": "uint256"
        }
      ],
      "name": "tokenURI",
      "outputs": [
        {
          "internalType": "string",
          "name": "",
          "type": "string"
        }
      ],
      "stateMutability": "view",
      "type": "function"
    },
    {
      "inputs": [],
      "name": "totalNFTminted",
      "outputs": [
        {
          "internalType": "uint256",
          "name": "",
          "type": "uint256"
        }
      ],
      "stateMutability": "view",
      "type": "function"
    },
    {
      "inputs": [
        {
          "internalType": "address",
          "name": "from",
          "type": "address"
        },
        {
          "internalType": "address",
          "name": "to",
          "type": "address"
        },
        {
          "internalType": "uint256",
          "name": "tokenId",
          "type": "uint256"
        }
      ],
      "name": "transferFrom",
      "outputs": [],
      "stateMutability": "nonpayable",
      "type": "function"
    }
  ],
  "bytecode": "0x60806040523480156200001157600080fd5b506040518060400160405280600981526020017f52616e646f6d4e465400000000000000000000000000000000000000000000008152506040518060400160405280600681526020017f52414e444f4d000000000000000000000000000000000000000000000000000081525081600090816200008f91906200043b565b508060019081620000a191906200043b565b505050620000ef6040518060400160405280601e81526020017f54686973206973206d79204e465420636f6e74726163742e2057686f61210000815250620000f560201b62000b561760201c565b620005d5565b62000195816040516024016200010c9190620005b1565b6040516020818303038152906040527f41304fac000000000000000000000000000000000000000000000000000000007bffffffffffffffffffffffffffffffffffffffffffffffffffffffff19166020820180517bffffffffffffffffffffffffffffffffffffffffffffffffffffffff83818316178352505050506200019860201b60201c565b50565b60008151905060006a636f6e736f6c652e6c6f679050602083016000808483855afa5050505050565b600081519050919050565b7f4e487b7100000000000000000000000000000000000000000000000000000000600052604160045260246000fd5b7f4e487b7100000000000000000000000000000000000000000000000000000000600052602260045260246000fd5b600060028204905060018216806200024357607f821691505b602082108103620002595762000258620001fb565b5b50919050565b60008190508160005260206000209050919050565b60006020601f8301049050919050565b600082821b905092915050565b600060088302620002c37fffffffffffffffffffffffffffffffffffffffffffffffffffffffffffffffff8262000284565b620002cf868362000284565b95508019841693508086168417925050509392505050565b6000819050919050565b6000819050919050565b60006200031c620003166200031084620002e7565b620002f1565b620002e7565b9050919050565b6000819050919050565b6200033883620002fb565b62000350620003478262000323565b84845462000291565b825550505050565b600090565b6200036762000358565b620003748184846200032d565b505050565b5b818110156200039c57620003906000826200035d565b6001810190506200037a565b5050565b601f821115620003eb57620003b5816200025f565b620003c08462000274565b81016020851015620003d0578190505b620003e8620003df8562000274565b83018262000379565b50505b505050565b600082821c905092915050565b60006200041060001984600802620003f0565b1980831691505092915050565b60006200042b8383620003fd565b9150826002028217905092915050565b6200044682620001c1565b67ffffffffffffffff811115620004625762000461620001cc565b5b6200046e82546200022a565b6200047b828285620003a0565b600060209050601f831160018114620004b357600084156200049e578287015190505b620004aa85826200041d565b8655506200051a565b601f198416620004c3866200025f565b60005b82811015620004ed57848901518255600182019150602085019450602081019050620004c6565b868310156200050d578489015162000509601f891682620003fd565b8355505b6001600288020188555050505b505050505050565b600082825260208201905092915050565b60005b838110156200055357808201518184015260208101905062000536565b60008484015250505050565b6000601f19601f8301169050919050565b60006200057d82620001c1565b62000589818562000522565b93506200059b81856020860162000533565b620005a6816200055f565b840191505092915050565b60006020820190508181036000830152620005cd818462000570565b905092915050565b61303080620005e56000396000f3fe608060405234801561001057600080fd5b50600436106100f55760003560e01c80636352211e11610097578063a22cb46511610066578063a22cb46514610284578063b88d4fde146102a0578063c87b56dd146102bc578063e985e9c5146102ec576100f5565b80636352211e146101e857806370a08231146102185780638ebb20d71461024857806395d89b4114610266576100f5565b8063095ea7b3116100d3578063095ea7b31461017857806323b872dd1461019457806339fa8daf146101b057806342842e0e146101cc576100f5565b806301ffc9a7146100fa57806306fdde031461012a578063081812fc14610148575b600080fd5b610114600480360381019061010f9190611da3565b61031c565b6040516101219190611deb565b60405180910390f35b6101326103fe565b60405161013f9190611e96565b60405180910390f35b610162600480360381019061015d9190611eee565b610490565b60405161016f9190611f5c565b60405180910390f35b610192600480360381019061018d9190611fa3565b6104d6565b005b6101ae60048036038101906101a99190611fe3565b6105ed565b005b6101ca60048036038101906101c5919061216b565b61064d565b005b6101e660048036038101906101e19190611fe3565b610738565b005b61020260048036038101906101fd9190611eee565b610758565b60405161020f9190611f5c565b60405180910390f35b610232600480360381019061022d91906121b4565b6107de565b60405161023f91906121f0565b60405180910390f35b610250610895565b60405161025d91906121f0565b60405180910390f35b61026e6108a6565b60405161027b9190611e96565b60405180910390f35b61029e60048036038101906102999190612237565b610938565b005b6102ba60048036038101906102b59190612318565b61094e565b005b6102d660048036038101906102d19190611eee565b6109b0565b6040516102e39190611e96565b60405180910390f35b6103066004803603810190610301919061239b565b610ac2565b6040516103139190611deb565b60405180910390f35b60007f80ac58cd000000000000000000000000000000000000000000000000000000007bffffffffffffffffffffffffffffffffffffffffffffffffffffffff1916827bffffffffffffffffffffffffffffffffffffffffffffffffffffffff191614806103e757507f5b5e139f000000000000000000000000000000000000000000000000000000007bffffffffffffffffffffffffffffffffffffffffffffffffffffffff1916827bffffffffffffffffffffffffffffffffffffffffffffffffffffffff1916145b806103f757506103f682610bef565b5b9050919050565b60606000805461040d9061240a565b80601f01602080910402602001604051908101604052809291908181526020018280546104399061240a565b80156104865780601f1061045b57610100808354040283529160200191610486565b820191906000526020600020905b81548152906001019060200180831161046957829003601f168201915b5050505050905090565b600061049b82610c59565b6004600083815260200190815260200160002060009054906101000a900473ffffffffffffffffffffffffffffffffffffffff169050919050565b60006104e182610758565b90508073ffffffffffffffffffffffffffffffffffffffff168373ffffffffffffffffffffffffffffffffffffffff1603610551576040517f08c379a0000000000000000000000000000000000000000000000000000000008152600401610548906124ad565b60405180910390fd5b8073ffffffffffffffffffffffffffffffffffffffff16610570610ca4565b73ffffffffffffffffffffffffffffffffffffffff16148061059f575061059e81610599610ca4565b610ac2565b5b6105de576040517f08c379a00000000000000000000000000000000000000000000000000000000081526004016105d59061253f565b60405180910390fd5b6105e88383610cac565b505050565b6105fe6105f8610ca4565b82610d65565b61063d576040517f08c379a0000000000000000000000000000000000000000000000000000000008152600401610634906125d1565b60405180910390fd5b610648838383610dfa565b505050565b600061065960076110f3565b905061066481611101565b600f8111156106a8576040517f08c379a000000000000000000000000000000000000000000000000000000000815260040161069f9061263d565b60405180910390fd5b6106b2338261119a565b6106bc81836111b8565b6106c66007611225565b6106e9604051806060016040528060258152602001612fd660259139823361123b565b6106fb6106f660076110f3565b611101565b7febb98688741ffa4c7589bf325de30cf7becb63de567842e1ccdb6cb949fdc82c338260405161072c92919061265d565b60405180910390a15050565b6107538383836040518060200160405280600081525061094e565b505050565b600080610764836112da565b9050600073ffffffffffffffffffffffffffffffffffffffff168173ffffffffffffffffffffffffffffffffffffffff16036107d5576040517f08c379a00000000000000000000000000000000000000000000000000000000081526004016107cc906126d2565b60405180910390fd5b80915050919050565b60008073ffffffffffffffffffffffffffffffffffffffff168273ffffffffffffffffffffffffffffffffffffffff160361084e576040517f08c379a000000000000000000000000000000000000000000000000000000000815260040161084590612764565b60405180910390fd5b600360008373ffffffffffffffffffffffffffffffffffffffff1673ffffffffffffffffffffffffffffffffffffffff168152602001908152602001600020549050919050565b60006108a160076110f3565b905090565b6060600180546108b59061240a565b80601f01602080910402602001604051908101604052809291908181526020018280546108e19061240a565b801561092e5780601f106109035761010080835404028352916020019161092e565b820191906000526020600020905b81548152906001019060200180831161091157829003601f168201915b5050505050905090565b61094a610943610ca4565b8383611317565b5050565b61095f610959610ca4565b83610d65565b61099e576040517f08c379a0000000000000000000000000000000000000000000000000000000008152600401610995906125d1565b60405180910390fd5b6109aa84848484611483565b50505050565b60606109bb82610c59565b60006006600084815260200190815260200160002080546109db9061240a565b80601f0160208091040260200160405190810160405280929190818152602001828054610a079061240a565b8015610a545780601f10610a2957610100808354040283529160200191610a54565b820191906000526020600020905b815481529060010190602001808311610a3757829003601f168201915b505050505090506000610a656114df565b90506000815103610a7a578192505050610abd565b600082511115610aaf578082604051602001610a979291906127c0565b60405160208183030381529060405292505050610abd565b610ab8846114f6565b925050505b919050565b6000600560008473ffffffffffffffffffffffffffffffffffffffff1673ffffffffffffffffffffffffffffffffffffffff16815260200190815260200160002060008373ffffffffffffffffffffffffffffffffffffffff1673ffffffffffffffffffffffffffffffffffffffff16815260200190815260200160002060009054906101000a900460ff16905092915050565b610bec81604051602401610b6a9190611e96565b6040516020818303038152906040527f41304fac000000000000000000000000000000000000000000000000000000007bffffffffffffffffffffffffffffffffffffffffffffffffffffffff19166020820180517bffffffffffffffffffffffffffffffffffffffffffffffffffffffff838183161783525050505061155e565b50565b60007f01ffc9a7000000000000000000000000000000000000000000000000000000007bffffffffffffffffffffffffffffffffffffffffffffffffffffffff1916827bffffffffffffffffffffffffffffffffffffffffffffffffffffffff1916149050919050565b610c6281611587565b610ca1576040517f08c379a0000000000000000000000000000000000000000000000000000000008152600401610c98906126d2565b60405180910390fd5b50565b600033905090565b816004600083815260200190815260200160002060006101000a81548173ffffffffffffffffffffffffffffffffffffffff021916908373ffffffffffffffffffffffffffffffffffffffff160217905550808273ffffffffffffffffffffffffffffffffffffffff16610d1f83610758565b73ffffffffffffffffffffffffffffffffffffffff167f8c5be1e5ebec7d5bd14f71427d1e84f3dd0314c0f7b2291e5b200ac8c7c3b92560405160405180910390a45050565b600080610d7183610758565b90508073ffffffffffffffffffffffffffffffffffffffff168473ffffffffffffffffffffffffffffffffffffffff161480610db35750610db28185610ac2565b5b80610df157508373ffffffffffffffffffffffffffffffffffffffff16610dd984610490565b73ffffffffffffffffffffffffffffffffffffffff16145b91505092915050565b8273ffffffffffffffffffffffffffffffffffffffff16610e1a82610758565b73ffffffffffffffffffffffffffffffffffffffff1614610e70576040517f08c379a0000000000000000000000000000000000000000000000000000000008152600401610e6790612856565b60405180910390fd5b600073ffffffffffffffffffffffffffffffffffffffff168273ffffffffffffffffffffffffffffffffffffffff1603610edf576040517f08c379a0000000000000000000000000000000000000000000000000000000008152600401610ed6906128e8565b60405180910390fd5b610eec83838360016115c8565b8273ffffffffffffffffffffffffffffffffffffffff16610f0c82610758565b73ffffffffffffffffffffffffffffffffffffffff1614610f62576040517f08c379a0000000000000000000000000000000000000000000000000000000008152600401610f5990612856565b60405180910390fd5b6004600082815260200190815260200160002060006101000a81549073ffffffffffffffffffffffffffffffffffffffff02191690556001600360008573ffffffffffffffffffffffffffffffffffffffff1673ffffffffffffffffffffffffffffffffffffffff168152602001908152602001600020600082825403925050819055506001600360008473ffffffffffffffffffffffffffffffffffffffff1673ffffffffffffffffffffffffffffffffffffffff16815260200190815260200160002060008282540192505081905550816002600083815260200190815260200160002060006101000a81548173ffffffffffffffffffffffffffffffffffffffff021916908373ffffffffffffffffffffffffffffffffffffffff160217905550808273ffffffffffffffffffffffffffffffffffffffff168473ffffffffffffffffffffffffffffffffffffffff167fddf252ad1be2c89b69c2b068fc378daa952ba7f163c4a11628f55a4df523b3ef60405160405180910390a46110ee83838360016116ee565b505050565b600081600001549050919050565b6111978160405160240161111591906121f0565b6040516020818303038152906040527ff82c50f1000000000000000000000000000000000000000000000000000000007bffffffffffffffffffffffffffffffffffffffffffffffffffffffff19166020820180517bffffffffffffffffffffffffffffffffffffffffffffffffffffffff838183161783525050505061155e565b50565b6111b48282604051806020016040528060008152506116f4565b5050565b6111c182611587565b611200576040517f08c379a00000000000000000000000000000000000000000000000000000000081526004016111f79061297a565b60405180910390fd5b806006600084815260200190815260200160002090816112209190612b46565b505050565b6001816000016000828254019250508190555050565b6112d583838360405160240161125393929190612c18565b6040516020818303038152906040527f1c7ec448000000000000000000000000000000000000000000000000000000007bffffffffffffffffffffffffffffffffffffffffffffffffffffffff19166020820180517bffffffffffffffffffffffffffffffffffffffffffffffffffffffff838183161783525050505061155e565b505050565b60006002600083815260200190815260200160002060009054906101000a900473ffffffffffffffffffffffffffffffffffffffff169050919050565b8173ffffffffffffffffffffffffffffffffffffffff168373ffffffffffffffffffffffffffffffffffffffff1603611385576040517f08c379a000000000000000000000000000000000000000000000000000000000815260040161137c90612ca2565b60405180910390fd5b80600560008573ffffffffffffffffffffffffffffffffffffffff1673ffffffffffffffffffffffffffffffffffffffff16815260200190815260200160002060008473ffffffffffffffffffffffffffffffffffffffff1673ffffffffffffffffffffffffffffffffffffffff16815260200190815260200160002060006101000a81548160ff0219169083151502179055508173ffffffffffffffffffffffffffffffffffffffff168373ffffffffffffffffffffffffffffffffffffffff167f17307eab39ab6107e8899845ad3d59bd9653f200f220920489ca2b5937696c31836040516114769190611deb565b60405180910390a3505050565b61148e848484610dfa565b61149a8484848461174f565b6114d9576040517f08c379a00000000000000000000000000000000000000000000000000000000081526004016114d090612d34565b60405180910390fd5b50505050565b606060405180602001604052806000815250905090565b606061150182610c59565b600061150b6114df565b9050600081511161152b5760405180602001604052806000815250611556565b80611535846118d6565b6040516020016115469291906127c0565b6040516020818303038152906040525b915050919050565b60008151905060006a636f6e736f6c652e6c6f679050602083016000808483855afa5050505050565b60008073ffffffffffffffffffffffffffffffffffffffff166115a9836112da565b73ffffffffffffffffffffffffffffffffffffffff1614159050919050565b60018111156116e857600073ffffffffffffffffffffffffffffffffffffffff168473ffffffffffffffffffffffffffffffffffffffff161461165c5780600360008673ffffffffffffffffffffffffffffffffffffffff1673ffffffffffffffffffffffffffffffffffffffff16815260200190815260200160002060008282546116549190612d83565b925050819055505b600073ffffffffffffffffffffffffffffffffffffffff168373ffffffffffffffffffffffffffffffffffffffff16146116e75780600360008573ffffffffffffffffffffffffffffffffffffffff1673ffffffffffffffffffffffffffffffffffffffff16815260200190815260200160002060008282546116df9190612db7565b925050819055505b5b50505050565b50505050565b6116fe83836119a4565b61170b600084848461174f565b61174a576040517f08c379a000000000000000000000000000000000000000000000000000000000815260040161174190612d34565b60405180910390fd5b505050565b60006117708473ffffffffffffffffffffffffffffffffffffffff16611bc1565b156118c9578373ffffffffffffffffffffffffffffffffffffffff1663150b7a02611799610ca4565b8786866040518563ffffffff1660e01b81526004016117bb9493929190612e40565b6020604051808303816000875af19250505080156117f757506040513d601f19601f820116820180604052508101906117f49190612ea1565b60015b611879573d8060008114611827576040519150601f19603f3d011682016040523d82523d6000602084013e61182c565b606091505b506000815103611871576040517f08c379a000000000000000000000000000000000000000000000000000000000815260040161186890612d34565b60405180910390fd5b805181602001fd5b63150b7a0260e01b7bffffffffffffffffffffffffffffffffffffffffffffffffffffffff1916817bffffffffffffffffffffffffffffffffffffffffffffffffffffffff1916149150506118ce565b600190505b949350505050565b6060600060016118e584611be4565b01905060008167ffffffffffffffff81111561190457611903612040565b5b6040519080825280601f01601f1916602001820160405280156119365781602001600182028036833780820191505090505b509050600082602001820190505b600115611999578080600190039150507f3031323334353637383961626364656600000000000000000000000000000000600a86061a8153600a858161198d5761198c612ece565b5b04945060008503611944575b819350505050919050565b600073ffffffffffffffffffffffffffffffffffffffff168273ffffffffffffffffffffffffffffffffffffffff1603611a13576040517f08c379a0000000000000000000000000000000000000000000000000000000008152600401611a0a90612f49565b60405180910390fd5b611a1c81611587565b15611a5c576040517f08c379a0000000000000000000000000000000000000000000000000000000008152600401611a5390612fb5565b60405180910390fd5b611a6a6000838360016115c8565b611a7381611587565b15611ab3576040517f08c379a0000000000000000000000000000000000000000000000000000000008152600401611aaa90612fb5565b60405180910390fd5b6001600360008473ffffffffffffffffffffffffffffffffffffffff1673ffffffffffffffffffffffffffffffffffffffff16815260200190815260200160002060008282540192505081905550816002600083815260200190815260200160002060006101000a81548173ffffffffffffffffffffffffffffffffffffffff021916908373ffffffffffffffffffffffffffffffffffffffff160217905550808273ffffffffffffffffffffffffffffffffffffffff16600073ffffffffffffffffffffffffffffffffffffffff167fddf252ad1be2c89b69c2b068fc378daa952ba7f163c4a11628f55a4df523b3ef60405160405180910390a4611bbd6000838360016116ee565b5050565b6000808273ffffffffffffffffffffffffffffffffffffffff163b119050919050565b600080600090507a184f03e93ff9f4daa797ed6e38ed64bf6a1f0100000000000000008310611c42577a184f03e93ff9f4daa797ed6e38ed64bf6a1f0100000000000000008381611c3857611c37612ece565b5b0492506040810190505b6d04ee2d6d415b85acef81000000008310611c7f576d04ee2d6d415b85acef81000000008381611c7557611c74612ece565b5b0492506020810190505b662386f26fc100008310611cae57662386f26fc100008381611ca457611ca3612ece565b5b0492506010810190505b6305f5e1008310611cd7576305f5e1008381611ccd57611ccc612ece565b5b0492506008810190505b6127108310611cfc576127108381611cf257611cf1612ece565b5b0492506004810190505b60648310611d1f5760648381611d1557611d14612ece565b5b0492506002810190505b600a8310611d2e576001810190505b80915050919050565b6000604051905090565b600080fd5b600080fd5b60007fffffffff0000000000000000000000000000000000000000000000000000000082169050919050565b611d8081611d4b565b8114611d8b57600080fd5b50565b600081359050611d9d81611d77565b92915050565b600060208284031215611db957611db8611d41565b5b6000611dc784828501611d8e565b91505092915050565b60008115159050919050565b611de581611dd0565b82525050565b6000602082019050611e006000830184611ddc565b92915050565b600081519050919050565b600082825260208201905092915050565b60005b83811015611e40578082015181840152602081019050611e25565b60008484015250505050565b6000601f19601f8301169050919050565b6000611e6882611e06565b611e728185611e11565b9350611e82818560208601611e22565b611e8b81611e4c565b840191505092915050565b60006020820190508181036000830152611eb08184611e5d565b905092915050565b6000819050919050565b611ecb81611eb8565b8114611ed657600080fd5b50565b600081359050611ee881611ec2565b92915050565b600060208284031215611f0457611f03611d41565b5b6000611f1284828501611ed9565b91505092915050565b600073ffffffffffffffffffffffffffffffffffffffff82169050919050565b6000611f4682611f1b565b9050919050565b611f5681611f3b565b82525050565b6000602082019050611f716000830184611f4d565b92915050565b611f8081611f3b565b8114611f8b57600080fd5b50565b600081359050611f9d81611f77565b92915050565b60008060408385031215611fba57611fb9611d41565b5b6000611fc885828601611f8e565b9250506020611fd985828601611ed9565b9150509250929050565b600080600060608486031215611ffc57611ffb611d41565b5b600061200a86828701611f8e565b935050602061201b86828701611f8e565b925050604061202c86828701611ed9565b9150509250925092565b600080fd5b600080fd5b7f4e487b7100000000000000000000000000000000000000000000000000000000600052604160045260246000fd5b61207882611e4c565b810181811067ffffffffffffffff8211171561209757612096612040565b5b80604052505050565b60006120aa611d37565b90506120b6828261206f565b919050565b600067ffffffffffffffff8211156120d6576120d5612040565b5b6120df82611e4c565b9050602081019050919050565b82818337600083830152505050565b600061210e612109846120bb565b6120a0565b90508281526020810184848401111561212a5761212961203b565b5b6121358482856120ec565b509392505050565b600082601f83011261215257612151612036565b5b81356121628482602086016120fb565b91505092915050565b60006020828403121561218157612180611d41565b5b600082013567ffffffffffffffff81111561219f5761219e611d46565b5b6121ab8482850161213d565b91505092915050565b6000602082840312156121ca576121c9611d41565b5b60006121d884828501611f8e565b91505092915050565b6121ea81611eb8565b82525050565b600060208201905061220560008301846121e1565b92915050565b61221481611dd0565b811461221f57600080fd5b50565b6000813590506122318161220b565b92915050565b6000806040838503121561224e5761224d611d41565b5b600061225c85828601611f8e565b925050602061226d85828601612222565b9150509250929050565b600067ffffffffffffffff82111561229257612291612040565b5b61229b82611e4c565b9050602081019050919050565b60006122bb6122b684612277565b6120a0565b9050828152602081018484840111156122d7576122d661203b565b5b6122e28482856120ec565b509392505050565b600082601f8301126122ff576122fe612036565b5b813561230f8482602086016122a8565b91505092915050565b6000806000806080858703121561233257612331611d41565b5b600061234087828801611f8e565b945050602061235187828801611f8e565b935050604061236287828801611ed9565b925050606085013567ffffffffffffffff81111561238357612382611d46565b5b61238f878288016122ea565b91505092959194509250565b600080604083850312156123b2576123b1611d41565b5b60006123c085828601611f8e565b92505060206123d185828601611f8e565b9150509250929050565b7f4e487b7100000000000000000000000000000000000000000000000000000000600052602260045260246000fd5b6000600282049050600182168061242257607f821691505b602082108103612435576124346123db565b5b50919050565b7f4552433732313a20617070726f76616c20746f2063757272656e74206f776e6560008201527f7200000000000000000000000000000000000000000000000000000000000000602082015250565b6000612497602183611e11565b91506124a28261243b565b604082019050919050565b600060208201905081810360008301526124c68161248a565b9050919050565b7f4552433732313a20617070726f76652063616c6c6572206973206e6f7420746f60008201527f6b656e206f776e6572206f7220617070726f76656420666f7220616c6c000000602082015250565b6000612529603d83611e11565b9150612534826124cd565b604082019050919050565b600060208201905081810360008301526125588161251c565b9050919050565b7f4552433732313a2063616c6c6572206973206e6f7420746f6b656e206f776e6560008201527f72206f7220617070726f76656400000000000000000000000000000000000000602082015250565b60006125bb602d83611e11565b91506125c68261255f565b604082019050919050565b600060208201905081810360008301526125ea816125ae565b9050919050565b7f6d696e74696e67206c696d697420657863656564656400000000000000000000600082015250565b6000612627601683611e11565b9150612632826125f1565b602082019050919050565b600060208201905081810360008301526126568161261a565b9050919050565b60006040820190506126726000830185611f4d565b61267f60208301846121e1565b9392505050565b7f4552433732313a20696e76616c696420746f6b656e2049440000000000000000600082015250565b60006126bc601883611e11565b91506126c782612686565b602082019050919050565b600060208201905081810360008301526126eb816126af565b9050919050565b7f4552433732313a2061646472657373207a65726f206973206e6f74206120766160008201527f6c6964206f776e65720000000000000000000000000000000000000000000000602082015250565b600061274e602983611e11565b9150612759826126f2565b604082019050919050565b6000602082019050818103600083015261277d81612741565b9050919050565b600081905092915050565b600061279a82611e06565b6127a48185612784565b93506127b4818560208601611e22565b80840191505092915050565b60006127cc828561278f565b91506127d8828461278f565b91508190509392505050565b7f4552433732313a207472616e736665722066726f6d20696e636f72726563742060008201527f6f776e6572000000000000000000000000000000000000000000000000000000602082015250565b6000612840602583611e11565b915061284b826127e4565b604082019050919050565b6000602082019050818103600083015261286f81612833565b9050919050565b7f4552433732313a207472616e7366657220746f20746865207a65726f2061646460008201527f7265737300000000000000000000000000000000000000000000000000000000602082015250565b60006128d2602483611e11565b91506128dd82612876565b604082019050919050565b60006020820190508181036000830152612901816128c5565b9050919050565b7f45524337323155524953746f726167653a2055524920736574206f66206e6f6e60008201527f6578697374656e7420746f6b656e000000000000000000000000000000000000602082015250565b6000612964602e83611e11565b915061296f82612908565b604082019050919050565b6000602082019050818103600083015261299381612957565b9050919050565b60008190508160005260206000209050919050565b60006020601f8301049050919050565b600082821b905092915050565b6000600883026129fc7fffffffffffffffffffffffffffffffffffffffffffffffffffffffffffffffff826129bf565b612a0686836129bf565b95508019841693508086168417925050509392505050565b6000819050919050565b6000612a43612a3e612a3984611eb8565b612a1e565b611eb8565b9050919050565b6000819050919050565b612a5d83612a28565b612a71612a6982612a4a565b8484546129cc565b825550505050565b600090565b612a86612a79565b612a91818484612a54565b505050565b5b81811015612ab557612aaa600082612a7e565b600181019050612a97565b5050565b601f821115612afa57612acb8161299a565b612ad4846129af565b81016020851015612ae3578190505b612af7612aef856129af565b830182612a96565b50505b505050565b600082821c905092915050565b6000612b1d60001984600802612aff565b1980831691505092915050565b6000612b368383612b0c565b9150826002028217905092915050565b612b4f82611e06565b67ffffffffffffffff811115612b6857612b67612040565b5b612b72825461240a565b612b7d828285612ab9565b600060209050601f831160018114612bb05760008415612b9e578287015190505b612ba88582612b2a565b865550612c10565b601f198416612bbe8661299a565b60005b82811015612be657848901518255600182019150602085019450602081019050612bc1565b86831015612c035784890151612bff601f891682612b0c565b8355505b6001600288020188555050505b505050505050565b60006060820190508181036000830152612c328186611e5d565b9050612c4160208301856121e1565b612c4e6040830184611f4d565b949350505050565b7f4552433732313a20617070726f766520746f2063616c6c657200000000000000600082015250565b6000612c8c601983611e11565b9150612c9782612c56565b602082019050919050565b60006020820190508181036000830152612cbb81612c7f565b9050919050565b7f4552433732313a207472616e7366657220746f206e6f6e20455243373231526560008201527f63656976657220696d706c656d656e7465720000000000000000000000000000602082015250565b6000612d1e603283611e11565b9150612d2982612cc2565b604082019050919050565b60006020820190508181036000830152612d4d81612d11565b9050919050565b7f4e487b7100000000000000000000000000000000000000000000000000000000600052601160045260246000fd5b6000612d8e82611eb8565b9150612d9983611eb8565b9250828203905081811115612db157612db0612d54565b5b92915050565b6000612dc282611eb8565b9150612dcd83611eb8565b9250828201905080821115612de557612de4612d54565b5b92915050565b600081519050919050565b600082825260208201905092915050565b6000612e1282612deb565b612e1c8185612df6565b9350612e2c818560208601611e22565b612e3581611e4c565b840191505092915050565b6000608082019050612e556000830187611f4d565b612e626020830186611f4d565b612e6f60408301856121e1565b8181036060830152612e818184612e07565b905095945050505050565b600081519050612e9b81611d77565b92915050565b600060208284031215612eb757612eb6611d41565b5b6000612ec584828501612e8c565b91505092915050565b7f4e487b7100000000000000000000000000000000000000000000000000000000600052601260045260246000fd5b7f4552433732313a206d696e7420746f20746865207a65726f2061646472657373600082015250565b6000612f33602083611e11565b9150612f3e82612efd565b602082019050919050565b60006020820190508181036000830152612f6281612f26565b9050919050565b7f4552433732313a20746f6b656e20616c7265616479206d696e74656400000000600082015250565b6000612f9f601c83611e11565b9150612faa82612f69565b602082019050919050565b60006020820190508181036000830152612fce81612f92565b905091905056fe416e204e465420772f20494420257320686173206265656e206d696e74656420746f202573a2646970667358221220ffe0d9102aaecea943d778718a6e162ac9685570fa2f277585458d7817c8beea64736f6c63430008110033",
  "linkReferences": {},
  "deployedLinkReferences": {}
}